:100000000C9434000C9451000C9451000C94510049
:100010000C9451000C9451000C9451000C9451001C
:100020000C9451000C9451000C9451000C9451000C
:100030000C9451000C9451000C9497000C945100B6
:100040000C9451000C9451000C9451000C945100EC
:100050000C9451000C9451000C9451000C945100DC
:100060000C9451000C94510011241FBECFEFD8E026
:10007000DEBFCDBF11E0A0E0B1E0E0E7F3E002C0F9
:1000800005900D92A833B107D9F721E0A8E3B1E0BC
:1000900001C01D92AA33B207E1F70E9465010C94DA
:1000A000B6010C9400008CB580658CBD08959EB59A
:1000B0008EBD0DB407FEFDCF8EB508951EBC0DB4E8
:1000C00007FEFDCF8EB508958FEF8AB98FEA84B908
:1000D0001BB815B8089584B5826084BD85B5846069
:1000E00085BDEEE6F0E08081826080838FEF87BD82
:1000F00008958F3170F0843270F08C3270F0883354
:1001000070F08A3470F0863670F0873970F486E0CB
:10011000089580E0089581E0089582E0089583E0E5
:10012000089584E0089585E0089587E008951F927A
:100130000F920FB60F9211242F933F934F935F931B
:100140006F937F938F939F93AF93BF93CF93DF93DF
:10015000EF93FF9380913801803110F010923801B5
:1001600080913801883080F480917C008062809397
:100170007C0080917C008E7F80937C00289A80E3B5
:100180008A95F1F7289812C080913801883088F05C
:1001900080913801803168F480917C008162809385
:1001A0007C002F9A80E38A95F1F72F9880EC8A954E
:1001B000F1F780917A00806480937A0080917A00D0
:1001C00084FFFCCF80917900C0913801D0E00E947B
:1001D0007900C05FDE4F8883E0913801F0E0E050A5
:1001E000FF4F9081E0913801F0E0E05FFE4F8081A9
:1001F000E0913801F0E08917B0F4A0913801B0E047
:10020000A050BF4F8C918150E050FF4F8083E09110
:100210003801F0E0A0913801B0E0A050BF4F8C91C0
:10022000E05FFE4F16C0E050FF4F9081E091380133
:10023000F0E0E05FFE4F8081891760F0E0913801C7
:10024000F0E0A0913801B0E0A05FBE4F8C91E0508B
:10025000FF4F8083809138018F5F809338018091B8
:100260003801873021F0809138018F3059F4E091C6
:100270003801F0E0E05FFE4F1082809138018F5F1F
:1002800080933801FF91EF91DF91CF91BF91AF91B2
:100290009F918F917F916F915F914F913F912F919E
:1002A0000F900FBE0F901F901895ECE7F0E0808143
:1002B00080628083EAE7F0E0808180688083EEE7F7
:1002C000F0E080818360808308950E9455010E9440
:1002D00064000E9453000E946B00299A82E08A9574
:1002E000F1F700C029982A9A80917A00806480935F
:1002F0007A00789410E0103108F010E0C12FD0E0BF
:10030000FE01E05FFE4F00818FE891E00197F1F779
:1003100000C000002A98183050F4E02FF0E0E05EB2
:10032000FE4F808180950E94570080E00DC088EFCD
:10033000810F883058F480E00E945700E02FF0E0F1
:10034000E05EFE4F808180950E9457002A9A183007
:1003500018F4C85DDE4F06C088EF810F883020F4A6
:10036000C05EDE4F88818BB91F5FC5CFF894FFCF89
:10037000300000000000000000000000000000004D
:10038000300000000000000000000000000000003D
:100390007F3F1F0F07030100010204081020408067
:0803A0001E232B37496596E688
:00000001FF
